:1000000045C0000060C000005EC000005CC0000091
:100010005AC0000058C0000056C0000054C0000084
:1000200052C0000050C000004EC000004CC0000094
:100030004AC00000D0C0000046C0000044C000001C
:1000400042C0000040C000003EC000003CC00000B4
:100050003AC0000038C0000036C0000034C00000C4
:1000600032C0000030C000002EC000002CC00000D4
:100070002AC0000028C0000026C0000024C00000E4
:1000800022C0000020C000001EC0000011241FBEBE
:10009000CFEFD0E4DEBFCDBF11E0A0E0B1E0EEE8ED
:1000A000F4E000E00BBF02C007900D92A430B1074E
:1000B000D9F721E0A4E0B1E001C01D92AD32B20752
:1000C000E1F733D1E2C19CCF8FEE82B90000009BF3
:1000D00029C0019B29C0029B29C0039B29C08FED29
:1000E00082B90000009B26C0019B26C0029B26C04F
:1000F000039B26C08FEB82B90000009B23C0019BAD
:1001000023C0029B23C0039B23C08FE782B900005A
:10011000009B20C0019B20C0029B20C0039920C0EF
:1001200084E4089581E3089584E3089587E30895BE
:100130008AE2089582E3089585E3089588E30895A7
:1001400080E3089583E3089586E3089589E308959D
:1001500083E2089581E4089582E4089583E4089594
:1001600080E0089560930001709301018093020183
:10017000909303016093040170930501809306013D
:100180009093070108958BE0809381008DE790E0C4
:10019000909389008093880082E080936F00109292
:1001A0008500109284008091000190910101A0913E
:1001B0000201B09103018093040190930501A09383
:1001C0000601B09307018FB780688FBF089581E063
:1001D0008093080108951F920F920FB60F92112479
:1001E0000BB60F922F933F934F935F936F937F9331
:1001F0008F939F93AF93BF93EF93FF9380910401ED
:1002000090910501A0910601B09107010197A10904
:10021000B1098093040190930501A0930601B09366
:100220000701892B8A2B8B2B89F4D1DF8091000168
:1002300090910101A0910201B0910301809304010A
:1002400090930501A0930601B0930701FF91EF91F0
:10025000BF91AF919F918F917F916F915F914F91DE
:100260003F912F910F900BBE0F900FBE0F901F90DC
:1002700018950F931F93CF93DF93C2E0D0E0CE0188
:100280000297EDD08E01015F1E4FF80132978083F7
:10029000CE010197E4D0F80131978083CE01DFD001
:1002A000F80180832396C131D10549F7DF91CF91C1
:1002B0001F910F9108950F931F93CF93DF93C2E087
:1002C000D0E08E01025E1E4FF80132976081CE01B0
:1002D0000297CDD0F80131976081CE010197C7D048
:1002E000F8016081CE01C3D02396C131D10549F711
:1002F000DF91CF911F910F910895E6DE8093090160
:10030000813481F48FEF85B910920F01809118012B
:1003100080930A018091160180930B016AE071E0DD
:1003200081E078C085E585B9089580EF81B98FE0D7
:1003300082B98FEF84B915B887B915B88AB915B8DD
:1003400081E680931E0182E680931F0183E68093FD
:10035000200184E68093210185E68093220186E6D0
:100360008093230187E68093240188E6809325010A
:1003700089E6809326018AE6809327018CE68093A4
:1003800028018DE6809329018EE680932A018FE66D
:1003900080932B0180E780932C018DDF6ADF64EF6F
:1003A00071E080E090E0DEDEEEDE4BD0A6DF8091F3
:1003B00008018823E1F310920801F8CF18161906F6
:1003C0005CF00895000021503109E1F74F5F5F4F65
:1003D0004817590729F4089540E050E067E073E0BA
:1003E0009B01F0CF5E9A88B95F9A00005F9881E028
:1003F00090E0E4CF5E9888B95F9A00005F9882E051
:1004000090E0DCCF813110F48158F4CF8155F2CFE8
:1004100081E0F0CF1F93CF93DF93182FEB01F8DF2C
:100420009881992351F0812F182F1F5FEBDF89915D
:10043000D9DF812F98819111F7CFDF91CF911F9153
:10044000089584E690E0BADF88E3D4DF86E0D2DF67
:100450008FE0D0DF81E0CEDF8AE090E0AFCFF99986
:10046000FECF92BD81BDF89A992780B50895262FB9
:10047000F999FECF1FBA92BD81BD20BD0FB6F89489
:0E048000FA9AF99A0FBE01960895F894FFCFEC
:04048E000100000069
:00000001FF
