S02A00006D74696E673030355F6C6162365F70617274325F6578325F386E6F74657363616C652E7372656377
S113000045C0000060C000005EC000005CC000008D
S11300105AC0000058C0000056C0000054C0000080
S113002052C0000050C000004EC000004CC0000090
S11300304AC0000071C0000046C0000044C0000077
S113004042C0000040C000003EC000003CC00000B0
S11300503AC0000038C0000036C0000034C00000C0
S113006032C0000030C000002EC000002CC00000D0
S11300702AC0000028C0000026C0000024C00000E0
S113008022C0000020C000001EC0000011241FBEBA
S1130090CFEFD0E4DEBFCDBF11E0A0E0B1E0EEE9E8
S11300A0F7E000E00BBF02C007900D92A432B10745
S11300B0D9F721E0A4E2B1E001C01D92A033B20758
S11300C0E1F7C2D16AC39CCF8BE0809381008DE7B6
S11300D090E0909389008093880082E080936F0081
S11300E0109285001092840080912001909121014A
S11300F0A0912201B09123018093240190932501C2
S1130100A0932601B09327018FB780688FBF08950D
S113011081E08093280108951F920F920FB60F92E9
S113012011240BB60F922F933F934F935F936F93CA
S11301307F938F939F93AF93BF93EF93FF9380919C
S1130140240190912501A0912601B09127010197E6
S1130150A109B1098093240190932501A09326015C
S1130160B0932701892B8A2B8B2B89F4D1DF8091C3
S1130170200190912101A0912201B091230180934B
S1130180240190932501A0932601B0932701FF91A8
S1130190EF91BF91AF919F918F917F916F915F91FB
S11301A04F913F912F910F900BBE0F900FBE0F9068
S11301B01F90189560932001709321018093220170
S11301C09093230160932401709325018093260169
S11301D090932701089520B190B180912E0182302F
S11301E041F0833071F0811114C084E080932F01B9
S11301F022C080912F01873070F58F5F80932F018B
S11302002AC080912F01882351F1815080932F01BE
S113021026C020952170909594708230E1F028F4E6
S1130220882349F0813089F50AC08430E1F0B8F0C0
S1130230853059F520C081E080932E010895222352
S113024011F1911122C082E080932E01089583E080
S113025080932E01089584E080932E01089585E013
S113026080932E010895211110C091110EC081E0D8
S113027080932E010895211108C0911106C081E0D8
S113028080932E0108959111E2CF0895CF92DF92C9
S1130290EF92FF926B017C012091290130912A0198
S11302A040912B0150912C01FFD0882309F452C0B6
S11302B020E030E0A901C701B601F6D0811106C0E3
S11302C0E1E9F0E080818870808305C0E1E9F0E035
S11302D080818360808328E539E344E75FE3C701D5
S11302E0B601E2D088233CF48FEF9FEF90939900FE
S11302F08093980023C020E034E244EF56E4C70121
S1130300B601E4D118162CF41092990010929800BA
S113031015C020E030E040E053E4C701B601DAD173
S11303209B01AC0160E074E284EF9AE4C1D028D16F
S11303306150710970939900609398001092950030
S113034010929400C0922901D0922A01E0922B01CC
S1130350F0922C01FF90EF90DF90CF90089580E40D
S1130360809390008BE08093910060E070E0CB017B
S11303708DCF10929000109291000895CF93C0B148
S1130380C095C27080912D01823069F018F48130DB
S113039079F505C08330C9F0843051F519C081E086
S11303A08BB9E7DF25C082E08BB9D9DFE0912F015B
S11303B0F0E0EE0FFF1FEE0FFF1FE050FF4F6081D4
S11303C071818281938162DF13C084E08BB910C094
S11303D088E08BB9E0912F01F0E0EE0FFF1FEE0FE4
S11303E0FF1FE050FF4F60817181828193814EDF56
S11303F080912D018230A9F028F4882341F08130C6
S113040009F509C0833099F08430E1F416C083E023
S113041080932D0117C0C11115C083E080932D0175
S113042011C0C1110FC084E080932D010BC0CC23F7
S113043049F082E080932D0105C0CC2319F081E0BE
S113044080932D01CF91089511B88FEF82B984B9AB
S113045015B88AB98FE08BB964EF71E080E090E061
S1130460A9DE32DE10922D0110922E0164E670E0B6
S113047080E090E09FDE28DE72DFE0912F01F0E063
S1130480EE0FFF1FEE0FFF1FE050FF4F60817181E1
S113049082819381FBDE72DF9EDE809128018823B6
S11304A0E1F310922801F7CF9CD008F481E008957D
S11304B00CD0D2C0CAD040F0C1D030F021F45F3F9C
S11304C019F0B3C05111FCC0B6C0D7D098F399232A
S11304D0C9F35523B1F3951B550BBB27AA27621704
S11304E07307840738F09F5F5F4F220F331F441F49
S11304F0AA1FA9F333D00E2E3AF0E0E830D0915081
S11305005040E695001CCAF729D0FE2F27D0660F6D
S1130510771F881FBB1F261737074807AB07B0E8AC
S113052009F0BB0B802DBF01FF2793585F4F2AF0C2
S11305309E3F510568F079C0C3C05F3FECF3983E1D
S1130540DCF3869577956795B795F7959F5FC9F71F
S1130550880F911D9695879597F90895E1E0660FA8
S1130560771F881FBB1F621773078407BA0720F021
S1130570621B730B840BBA0BEE1F88F7E09508958A
S113058004D06894B1119CC008957FD088F09F571F
S113059090F0B92F9927B751A0F0D1F0660F771FCB
S11305A0881F991F1AF0BA95C9F712C0B13081F0AB
S11305B086D0B1E0089583C0672F782F8827B85F6D
S11305C039F0B93FCCF3869577956795B395D9F70C
S11305D03EF490958095709561957F4F8F4F9F4F16
S11305E00895990F0008550FAA0BE0E8FEEF1616C0
S11305F01706E807F907C0F012161306E407F50713
S113060098F0621B730B840B950B39F40A2661F086
S1130610232B242B252B21F408950A2609F4A14029
S1130620A6958FEF811D811D089597F99F6780E836
S113063070E060E008959FEF80EC089500240A9430
S11306401616170618060906089500240A941216A9
S11306501306140605060895092E0394000C11F4DC
S1130660882352F0BB0F40F4BF2B11F460FF04C089
S11306706F5F7F4F8F4F9F4F089557FD9058440FE2
S1130680551F59F05F3F71F04795880F97FB991FED
S113069061F09F3F79F087950895121613061406AA
S11306A0551FF2CF4695F1DF08C016161706180637
S11306B0991FF1CF86957105610508940895E89412
S11306C0BB2766277727CB0197F908958ADF08F4BB
S11306D08FEF08950BD0C0CFB1DF28F0B6DF18F04C
S11306E0952309F0A2CFA7CF1124EACFC6DFA0F348
S11306F0959FD1F3950F50E0551F629FF001729FB3
S1130700BB27F00DB11D639FAA27F00DB11DAA1FD1
S1130710649F6627B00DA11D661F829F2227B00D1E
S1130720A11D621F739FB00DA11D621F839FA00DA9
S1130730611D221F749F3327A00D611D231F849FF9
S1130740600D211D822F762F6A2F11249F57504050
S11307508AF0E1F088234AF0EE0FFF1FBB1F661FEB
S1130760771F881F91505040A9F79E3F510570F0A4
S11307705CCFA6CF5F3FECF3983EDCF3869577958C
S11307806795B795F795E7959F5FC1F7FE2B880F9F
S1110790911D9695879597F90895F894FFCFDB
S113079EA4D082437BD49243A4D0A443719DAE4390
S11307AE0000C4430000DC43A4F0F64300D002442E
S10707BE0100000032
S9030000FC
