:100000008AC00000A5C00000A3C00000A1C000007D
:100010009FC000009DC000009BC0000099C0000070
:1000200097C0000095C0000093C0000091C0000080
:100030008FC0000064C100008BC0000089C00000B8
:1000400087C0000085C0000083C0000081C00000A0
:100050007FC000007DC000007BC0000079C00000B0
:1000600077C0000075C0000073C0000071C00000C0
:100070006FC000006DC000006BC0000069C00000D0
:1000800067C0000065C0000063C00000EA001C01FA
:100090001C011C011C011C011C011C011C011C0178
:1000A0001C011C011C011C011C011C011C011C0168
:1000B0001C011C011C011C011C011C011C011C0158
:1000C0001C011C011C011C011C011C011C011C0148
:1000D0001C0119011C011C011C011C011C011C013B
:1000E00016011C011C011C011C011C010801ED0072
:1000F000F000F300F600F900FC00FF00020105012A
:100100001C011C011C011C011C011C011C010A0119
:100110000D011001130111241FBECFEFD0E4DEBF8B
:10012000CDBF11E0A0E0B1E0ECE4F6E000E00BBFF1
:1001300002C007900D92A630B107D9F721E0A6E0E2
:10014000B1E001C01D92A332B207E1F7A9D17CC290
:1001500057CF181619065CF0089500002150310998
:10016000E1F74F5F5F4F4817590729F4089540E0C2
:1001700050E067E073E09B01F0CF5E9A88B95F9A28
:1001800000005F9881E090E0E4CF5E9888B95F9AC4
:1001900000005F9882E090E0DCCF813110F481585C
:1001A000F4CF8155F2CF84E690E0D3DF88E3EDDF32
:1001B00086E0EBDF8FE0E9DF81E0E7DF8AE090E0D7
:1001C000C8CFE0910601F0E0E534F105A8F5EA5B5F
:1001D000FF4F34C28FE185B931C081E085B92EC0AF
:1001E00082E085B92BC083E085B928C084E085B959
:1001F00025C085E085B922C086E085B91FC087E0AB
:1002000085B91CC088E085B919C089E085B916C0D8
:1002100015B814C08AE085B911C08BE085B90EC04D
:100220008CE085B90BC08DE085B908C08EE085B93A
:1002300005C08FE085B902C08FEF85B980910401B8
:10024000813118F081E08093040180910601909142
:100250000C018917C1F0982F9154943038F09F5EAB
:100260009A3020F08A3211F0833269F480930C01C5
:1002700080910401982F9F5F909304018EDF8091FD
:10028000060190E07ADF80E090E00895609300013D
:100290007093010180930201909303016093070121
:1002A000709308018093090190930A0108958BE0EF
:1002B000809381008DE790E090938900809388007F
:1002C00082E080936F0010928500109284008091EC
:1002D000000190910101A0910201B091030180936E
:1002E000070190930801A0930901B0930A018FB709
:1002F00080688FBF089581E080930B0108951F925D
:100300000F920FB60F9211240BB60F922F933F93BB
:100310004F935F936F937F938F939F93AF93BF930D
:10032000EF93FF938091070190910801A09109013B
:10033000B0910A010197A109B10980930701909337
:100340000801A0930901B0930A01892B8A2B8B2BFA
:1003500089F4D1DF8091000190910101A091020107
:10036000B09103018093070190930801A0930901C4
:10037000B0930A01FF91EF91BF91AF919F918F913F
:100380007F916F915F914F913F912F910F900BBE95
:100390000F900FBE0F901F9018958FEE82B900003E
:1003A000009B29C0019B29C0029B29C0039B29C037
:1003B0008FED82B90000009B26C0019B26C0029BE6
:1003C00026C0039B26C08FEB82B90000009B23C090
:1003D000019B23C0029B23C0039B23C08FE782B9EC
:1003E0000000009B20C0019B20C0029B20C00399FD
:1003F00020C084E4089581E3089584E3089587E3A9
:1004000008958AE2089582E3089585E3089588E3D4
:10041000089580E3089583E3089586E3089589E3CA
:10042000089583E2089581E4089582E4089583E4C1
:10043000089580E00895B1DF8093060180E090E0A8
:1004400008950F931F93CF93DF93B62FA72FF82F05
:10045000E92F022F132FD42FC52F04C0052F142FDF
:10046000D32FC22F6B2F7A2F8F2F9E2F202F312F1C
:100470004D2F5C2FC1D0B02FA12FFD2FEC2F562F69
:10048000472F382F292F672B682B692B39F7602FBF
:10049000712F8D2F9C2FDF91CF911F910F91089578
:1004A000CF93DF9300D000D0CDB7DEB780EF81B916
:1004B0008FE082B91FEF14B915B817B918B81AB977
:1004C0001BB824E630E040E050E062E370E080E0FA
:1004D00090E0B7DF6B017C0162E370E080E090E0C8
:1004E000A701960189D0922EA32EB42E052F64E683
:1004F00070E080E090E0A70196017ED0EDE0F1E0B1
:10050000FA83E983A8E1B1E0BC83AB831083EEE01A
:10051000F1E09082A182B2820383E2E1F1E0908275
:10052000A182B28203838BE192E0909317018093C2
:1005300016011C93E9E1F1E0208331834283538368
:10054000EDE1F1E0208331834283538381EE90E03B
:100550009093220180932101C701B60197DEA7DEA7
:1005600022DE00E010E0C12CD12C3BC0F801EE0FE0
:10057000FF1F81E090E08C0F9D1FE80FF91FE080C6
:10058000F180D70115964D915D916D917C911897F1
:1005900011968D919D910D90BC91A02D48175907F2
:1005A0006A077B0781F4F70180810184F285E02DE1
:1005B000992787FD90950995D7018C93F7011582AE
:1005C000168217821086F70185819681A781B085F2
:1005D0000196A11DB11D85839683A783B0870F5F08
:1005E0001F4F0230110510F280910B018823E1F3B7
:1005F00010920B018601F5CFA1E21A2EAA1BBB1B9C
:10060000FD010DC0AA1FBB1FEE1FFF1FA217B307DE
:10061000E407F50720F0A21BB30BE40BF50B661FF4
:10062000771F881F991F1A9469F7609570958095B8
:1006300090959B01AC01BD01CF010895EE0FFF1F06
:0C0640000590F491E02D0994F894FFCF90
:06064C00010000000100A6
:00000001FF
