:1000000045C0000060C000005EC000005CC0000091
:100010005AC0000058C0000056C0000054C0000084
:1000200052C0000050C000004EC000004CC0000094
:100030004AC0000071C0000046C0000044C000007B
:1000400042C0000040C000003EC000003CC00000B4
:100050003AC0000038C0000036C0000034C00000C4
:1000600032C0000030C000002EC000002CC00000D4
:100070002AC0000028C0000026C0000024C00000E4
:1000800022C0000020C000001EC0000011241FBEBE
:10009000CFEFD0E4DEBFCDBF11E0A0E0B1E0ECE8EF
:1000A000F2E000E00BBF02C007900D92A430B10750
:1000B000D9F721E0A4E0B1E001C01D92AD30B20754
:1000C000E1F789D0E1C09CCF8BE0809381008DE780
:1000D00090E0909389008093880082E080936F0085
:1000E000109285001092840080910001909101018E
:1000F000A0910201B091030180930801909309013E
:10010000A0930A01B0930B018FB780688FBF089549
:1001100081E080930C0108951F920F920FB60F9209
:1001200011240BB60F922F933F934F935F936F93CE
:100130007F938F939F93AF93BF93EF93FF938091A0
:10014000080190910901A0910A01B0910B0101975A
:10015000A109B1098093080190930901A0930A01B4
:10016000B0930B01892B8A2B8B2B89F4D1DF8091E3
:10017000000190910101A0910201B09103018093CF
:10018000080190930901A0930A01B0930B01FF911C
:10019000EF91BF91AF919F918F917F916F915F91FF
:1001A0004F913F912F910F900BBE0F900FBE0F906C
:1001B0001F901895609300017093010180930201D4
:1001C00090930301609308017093090180930A01E1
:1001D00090930B0108958FEF84B915B868EE73E022
:1001E00080E090E0E7DF70DF14E0D2E0C1E068EE8D
:1001F00073E080E090E0DEDF80910C018823E1F382
:1002000010920C018091040190910501A0910601CA
:10021000B09107010097A105B10569F4C5B9019630
:10022000A11DB11D8093040190930501A0930601C7
:10023000B0930701DCCF81309105A105B105A9F488
:10024000D5B98091040190910501A0910601B0916A
:1002500007010196A11DB11D809304019093050132
:10026000A0930601B0930701C2CF0297A105B10583
:1002700009F0BDCF15B9109204011092050110923A
:0C028000060110920701B3CFF894FFCFE5
:04028C00010000006D
:00000001FF
