S01400004D6F64756C655F416C61726D2E737265635E
S113000045C0000060C000005EC000005CC000008D
S11300105AC0000058C0000056C0000054C0000080
S113002052C0000050C000004EC000004CC0000090
S11300304AC000006FC1000046C0000044C0000078
S113004042C0000040C000003EC000003CC00000B0
S11300503AC0000038C0000036C0000034C00000C0
S113006032C0000030C000002EC000002CC00000D0
S11300702AC0000028C0000026C0000024C00000E0
S113008022C0000020C000001EC0000011241FBEBA
S1130090CFEFD0E4DEBFCDBF11E0A0E0B1E0EEEAE7
S11300A0F7E000E00BBF02C007900D92A231B10748
S11300B0D9F721E0A2E1B1E001C01D92AA36B2074E
S11300C0E1F76FD272C39CCF181619065CF008953D
S11300D0000021503109E1F74F5F5F4F481759077E
S11300E029F4089540E050E067E073E09B01F0CF0D
S11300F05E9A88B95F9A00005F9881E090E0E4CF4F
S11301005E9888B95F9A00005F9882E090E0DCCF47
S1130110813110F48158F4CF8155F2CF81E0F0CFD2
S11301201F93CF93DF93182FEB01F8DF9881992366
S113013051F0812F182F1F5FEBDF8991D9DF812FB9
S113014098819111F7CFDF91CF911F91089584E6A3
S113015090E0BADF88E3D4DF86E0D2DF8FE0D0DF3F
S113016081E0CEDF8AE090E0AFCF81112BC0809197
S113017067018B3319F5809166018B33C9F4809143
S113018065018B3051F490916801992311F090E04E
S113019001C09FEF9093680105C08C3019F4109250
S11301A0650103C08F5F809365011092660103C0EF
S11301B08F5F80936601109267010FC08F5F8093F9
S11301C067010BC08BE0809365018BE3809366012C
S11301D088E2809367011092680180E0089583307B
S11301E0A9F02CF4813041F0823011F517C084302D
S11301F0D1F08930ECF423C0909117019F5F909364
S11302001701909164019334D1F414C09091640166
S11302109334A9F01092170182E011C09091640107
S1130220933269F409C090916401933239F407C0A0
S113023081E005C083E003C084E001C081E08093D5
S1130240690108950F931F93CF93DF93B62FA72FC0
S1130250F82FE92F022F132FD42FC52F04C0052FF9
S1130260142FD32FC22F6B2F7A2F8F2F9E2F202F37
S1130270312F4D2F5C2F77D2B02FA12FFD2FEC2FD4
S1130280562F472F382F292F672B682B692B39F7C7
S1130290602F712F8D2F9C2FDF91CF911F910F9184
S11302A0089560930001709301018093020190937B
S11302B003016093120170931301809314019093CE
S11302C0150108958BE0809381008DE790E0909371
S11302D089008093880082E080936F0010928500EB
S11302E0109284008091000190910101A09102017B
S11302F0B09103018093120190931301A093140110
S1130300B09315018FB780688FBF089581E0809303
S1130310160108951F920F920FB60F9211240BB677
S11303200F922F933F934F935F936F937F938F938A
S11303309F93AF93BF93EF93FF938091120190919A
S11303401301A0911401B09115010197A109B109FC
S11303508093120190931301A0931401B09315019B
S1130360892B8A2B8B2B89F4D1DF8091000190910A
S11303700101A0910201B0910301809312019093B5
S11303801301A0931401B0931501FF91EF91BF9154
S1130390AF919F918F917F916F915F914F913F9119
S11303A02F910F900BBE0F900FBE0F901F901895BA
S11303B08AE38093490180934601809165018A30E4
S11303C058F09DEC899F912D1124969596959695BC
S11303D0905D9093440103C090E3909344019DEC9D
S11303E0899F912D1124969596959695990F292F6D
S11303F0220F220F920F891B805D8093450180910B
S113040066018A3058F09DEC899F912D11249695B0
S113041096959695905D9093470103C090E39093D1
S113042047019DEC899F912D11249695969596955B
S1130430990F292F220F220F920F891B805D809321
S11304404801809167018A3058F09DEC899F912D75
S11304501124969596959695905D90934A0103C0C4
S113046090E390934A019DEC899F912D11249695D8
S113047096959695990F292F220F220F920F891B7B
S1130480805D80934B0180916801882321F081E491
S113049080934D01089580E580934D01089588234C
S11304A049F0E4E4F1E084E691E020E22193E817E6
S11304B0F907E1F780916901823071F018F4813015
S11304C081F405C0833019F0843059F405C06CE020
S11304D071E081E025DE05C06BDF64E471E081E05A
S11304E01FDE80E008958FEE82B90000009B29C0D2
S11304F0019B29C0029B29C0039B29C08FED82B9AF
S11305000000009B26C0019B26C0029B26C0039BC3
S113051026C08FEB82B90000009B23C0019B23C03F
S1130520029B23C0039B23C08FE782B90000009B7A
S113053020C0019B20C0029B20C0039920C084E4FA
S1130540089581E3089584E3089587E308958AE292
S1130550089582E3089585E3089588E3089580E388
S1130560089583E3089586E3089589E3089583E273
S1130570089581E4089582E4089583E4089580E071
S11305800895B1DF982F9154943020F0833211F004
S11305908A3219F48093640102C01092640180E0ED
S11305A00895CF93DF93CDB7DEB728970FB6F894AD
S11305B0DEBF0FBECDBF80EF81B98FE082B91FEFE0
S11305C014B915B817B918B81AB91BB828EE33E01E
S11305D040E050E068EE73E080E090E033DE24E633
S11305E030E040E050E02EDE24E630E040E050E031
S11305F029DE6B017C0168EE73E080E090E0A701E6
S11306009601B1D0922EA32EB42E052F64E670E08D
S113061080E090E0A7019601A6D088E0E4E0F1E054
S1130620DE01119601900D928A95E1F7109318015D
S1130630EDE1F1E02083318342835383E9E1F1E08A
S1130640208331834283538381EC92E0909322018F
S11306508093210110932301E8E2F1E020833183A8
S113066042835383E4E2F1E0208331834283538362
S11306708FEE90E090932D0180932C0110932E0126
S1130680E3E3F1E09082A182B2820383EFE2F1E03E
S11306909082A182B282038385EB90E0909338012B
S11306A08093370110933901EEE3F1E09082A18247
S11306B0B2820383EAE3F1E09082A182B2820383EF
S11306C08FE492E09093430180934201C701B60105
S11306D0E8DDF8DD3CDD00E010E0C12CD12C38C0B1
S11306E0F801EE0FFF1F81E090E08C0F9D1FE80FD3
S11306F0F91FE080F180D70115964D915D916D91C0
S11307007C91189711968D919D910D90BC91A02D7F
S1130710481759076A077B0769F4D7011996ED91C1
S1130720FC911A978C910995F701808315821682A2
S113073017821086F70185819681A781B08501967D
S1130740A11DB11D85839683A783B0870F5F1F4FBB
S11307500430110528F2809116018823E1F31092E8
S113076016018601F5CFA1E21A2EAA1BBB1BFD01BF
S11307700DC0AA1FBB1FEE1FFF1FA217B307E4077C
S1130780F50720F0A21BB30BE40BF50B661F771FD4
S1130790881F991F1A9469F76095709580959095B4
S11107A09B01AC01BD01CF010895F894FFCF79
S11307AE01000000180123012E013901436C6F630F
S10507BE6B00CA
S9030000FC
