:1000000078C0000093C0000091C000008FC00000C5
:100010008DC000008BC0000089C0000087C00000B8
:1000200085C0000083C0000081C000007FC00000C8
:100030007DC0000071C1000079C0000077C00000E1
:1000400075C0000073C0000071C000006FC00000E8
:100050006DC000006BC0000069C0000067C00000F8
:1000600065C0000063C0000061C000005FC0000008
:100070005DC000005BC0000059C0000057C0000018
:1000800055C0000053C0000051C00000A3037C0312
:1000900081037C038103A30387038C0387038C0301
:1000A000A3039103960391039603A3039603960378
:1000B00096039603A303A303A303A303A303A3032A
:1000C00029044C043E045204580460048004710462
:1000D00086048C049404A3049D040D055005B80403
:1000E000E404DE040705130528053D052205370550
:1000F0004B0511241FBECFEFD0E4DEBFCDBF11E012
:10010000A0E0B1E0EAE7FDE000E00BBF02C007902D
:100110000D92AA34B107D9F721E0AAE4B1E001C0F9
:100120001D92AE3DB207E1F7F8D425C669CF181687
:1001300019065CF00895000021503109E1F74F5F86
:100140005F4F4817590729F4089540E050E067E0F1
:1001500073E09B01F0CF5E9A88B95F9A00005F98C8
:1001600081E090E0E4CF5E9888B95F9A00005F98E4
:1001700082E090E0DCCF813110F48158F4CF8155DA
:10018000F2CF81E0F0CF1F93CF93DF93182FEB01D5
:10019000F8DF9881992351F0812F182F1F5FEBDF33
:1001A0008991D9DF812F98819111F7CF80E2E3DF28
:1001B000DF91CF911F91089584E690E0B8DF88E346
:1001C000D2DF86E0D0DF8FE0CEDF81E0CCDF8AE0D7
:1001D00090E0ADCF81112BC08091C1018B3319F517
:1001E0008091C0018B33C9F48091BF018B3051F4F1
:1001F0009091C201992311F090E001C09FEF90937C
:10020000C20105C08C3019F41092BF0103C08F5F8A
:100210008093BF011092C00103C08F5F8093C00123
:100220001092C1010FC08F5F8093C1010BC08BE0A2
:100230008093BF018BE38093C00188E28093C1016A
:100240001092C20180E008950F931F93CF93DF9324
:10025000B62FA72FF82FE92F022F132FD42FC52F3A
:1002600004C0052F142FD32FC22F6B2F7A2F8F2F5F
:100270009E2F202F312F4D2F5C2F33D5B02FA12F44
:10028000FD2FEC2F562F472F382F292F672B682B48
:10029000692B39F7602F712F8D2F9C2FDF91CF9114
:1002A0001F910F9108956093000170930101809355
:1002B00002019093030160934A0170934B01809374
:1002C0004C0190934D0108958BE0809381008DE760
:1002D00090E0909389008093880082E080936F0083
:1002E000109285001092840080910001909101018C
:1002F000A0910201B091030180934A0190934B01B8
:10030000A0934C01B0934D018FB780688FBF0895C3
:1003100081E080934E0108951F920F920FB60F92C5
:1003200011240BB60F922F933F934F935F936F93CC
:100330007F938F939F93AF93BF93EF93FF9380919E
:100340004A0190914B01A0914C01B0914D01019750
:10035000A109B10980934A0190934B01A0934C01EC
:10036000B0934D01892B8A2B8B2B89F4D1DF80919F
:10037000000190910101A0910201B09103018093CD
:100380004A0190934B01A0934C01B0934D01FF9112
:10039000EF91BF91AF919F918F917F916F915F91FD
:1003A0004F913F912F910F900BBE0F900FBE0F906A
:1003B0001F9018958AE38093A3018093A0018091F8
:1003C000BF018A3058F09DEC899F912D112496959C
:1003D00096959695905D90939E0103C090E39093BF
:1003E0009E019DEC899F912D112496959695969549
:1003F000990F292F220F220F920F891B805D809366
:100400009F018091C0018A3058F09DEC899F912D09
:100410001124969596959695905D9093A10103C0B1
:1004200090E39093A1019DEC899F912D11249695C5
:1004300096959695990F292F220F220F920F891BBF
:10044000805D8093A2018091C1018A3058F09DECBB
:10045000899F912D1124969596959695905D9093F0
:10046000A40103C090E39093A4019DEC899F912D7A
:100470001124969596959695990F292F220F220F64
:10048000920F891B805D8093A5018091C201882312
:1004900021F081E48093A701089580E58093A7016E
:1004A00008958FEE82B90000009B29C0019B29C0EE
:1004B000029B29C0039B29C08FED82B90000009BDD
:1004C00026C0019B26C0029B26C0039B26C08FEB43
:1004D00082B90000009B23C0019B23C0029B23C064
:1004E000039B23C08FE782B90000009B20C0019BC3
:1004F00020C0029B20C0039920C084E4089581E3BA
:10050000089584E3089587E308958AE2089582E3D5
:10051000089585E3089588E3089580E3089583E3CB
:10052000089586E3089589E3089583E2089581E4B8
:10053000089582E4089583E4089580E00895B1DF8A
:10054000982F9154943030F0833221F08A3211F098
:10055000803319F48093BE0102C01092BE0180E086
:1005600008954091DC015091DD01FA01EE0FFF1F6B
:10057000EE0FFF1FEC53FE4FF0935001E0934F013D
:100580008EE380937E0181E480937F019CE49093CD
:1005900080018093810182E5809382018DE48093C4
:1005A00083014F5F5F4F9A01ADECBCECC2D39695CF
:1005B00087959695879596958795282F205D20930A
:1005C00085019C01220F331F880F991F880F991FE7
:1005D000880F991F820F931F481B590B405D409352
:1005E00086018381811109C08FE480938A0186E4AA
:1005F00080938B0180938C0109C080E280938A01F3
:100600008FE480938B018EE480938C01E0914F0105
:10061000F091500190818DEC989F912D1124969529
:1006200096959695905D90938F019081989F212D3E
:100630001124269526952695220F322F330F330F3E
:10064000230F921B905D909390019AE390939101F8
:100650009181989F912D1124969596959695905DF0
:10066000909392019181989F812D11248695869572
:100670008695880F282F220F220F820F981B905DDE
:10068000909393018281811104C080E5809395014C
:1006900003C081E4809395018DE4809396010895D1
:1006A000CF93C82F8F3F21F081111BC015B849C0CF
:1006B0008FEF85B9EEE9F1E08EEB91E020E2219336
:1006C000E817F907E1F71092DD011092DC01EEE77F
:1006D000F1E08EE991E020E22193E817F907E1F7D4
:1006E00030C0811130C0E091C301F0E0EA31F10582
:1006F00018F5EA5BFF4F17C36CE071E081E043DD62
:1007000022C058DE6EE971E081E03DDD1CC068E189
:1007100071E081E038DD17C062E271E081E033DD35
:1007200012C061E371E081E02EDD0DC01ADF6EE7DB
:1007300071E081E028DD07C06DE371E081E023DD39
:1007400002C0C0E0D0CF8C2FCF910895E7ECF1E04C
:100750008FED91E0DF0113971C92DF0112971C923D
:10076000DF0111971C9210823496E817F90791F770
:1007700008950F931F93CF93DF9384E190E0E5D228
:100780008431F9F4C3E0D0E0CE010397DED28E01CC
:100790000C531E4FF80133978083CE010297D5D2B8
:1007A000F80132978083CE010197CFD2F8013197BB
:1007B0008083CE01CAD2F80180832496CB31D10543
:1007C00019F7DF91CF911F910F9108950F931F9308
:1007D000CF93DF9384E190E0B8D2843119F164E1E2
:1007E00084E190E0BAD21EC08E010C531E4FF80176
:1007F00033976081CE010397B0D2F80132976081C0
:10080000CE010297AAD2F80131976081CE010197FB
:10081000A4D2F8016081CE01A0D22496CB31D105BB
:1008200019F703C0C3E0D0E0DFCFDF91CF911F9174
:100830000F910895482F552747FD5095652F752F27
:10084000FA013197E931F10508F031C1E05AFF4F63
:100850006AC2909151019F5F90935101923328F4A5
:100860009091BE01933411F407C083E09091BE01D2
:10087000913409F41EC14EC183E04CC190915101E5
:10088000923330F49091BE01933419F082E001C0AC
:1008900082E0109251013EC19091BE01933209F065
:1008A00039C109C19091BE01933209F006C132C12C
:1008B0009091BE01913409F086E0109251012AC155
:1008C000909151019F5F90935101923308F0F7C0CE
:1008D0009091BE01933409F4F4C0913409F01AC127
:1008E000F2C090915101923328F49091BE0193345B
:1008F00019F403C087E001C087E0109251010AC1DA
:100900009091BE01933209F005C1DFC09091BE0104
:10091000933209F0DCC0FEC09091BE01913409F021
:100920008BE010925101F6C09091BE01933409F40E
:10093000D0C0913409F0EEC0CEC09091BE01933486
:1009400009F0CBC0E7C09091BE01933209F4C7C053
:10095000933409F4C6C0923409F4C5C0913409F443
:10096000C4C09A3209F4C3C0903309F0D3C0C1C0E7
:100970008091DC019091DD01FC01EE0FFF1FEE0F75
:10098000FF1FEC53FE4F20812C3058F4FC01EE0F7A
:10099000FF1FEE0FFF1FEC53FE4F2F5F208382E1FE
:1009A000B9C0FC01EE0FFF1FEE0FFF1FEC53FE4F0F
:1009B000108282818095828382E1ACC09091BE01D9
:1009C0009A3209F098C0A6C08091DC019091DD01B7
:1009D000FC01EE0FFF1FEE0FFF1FEC53FE4F2181B6
:1009E0002B3358F4FC01EE0FFF1FEE0FFF1FEC53EB
:1009F000FE4F2F5F218383E18DC0FC01EE0FFF1FAF
:100A0000EE0FFF1FEC53FE4F118283E183C09091E4
:100A1000BE01903309F071C07DC09091BE01933248
:100A200009F06DC077C08091DC019091DD018530C7
:100A3000910508F066C001969093DD018093DC017A
:100A400087E168C09091BE01913409F05CC062C03A
:100A5000E091DC01F091DD01EE0FFF1FEE0FFF1FB3
:100A6000EC53FE4F83818095838388E153C090913E
:100A7000BE01933409F049C04DC08091DC019091D2
:100A8000DD01009709F443C001979093DD01809345
:100A9000DC0189E13FC09091BE019234D1F53AC0AA
:100AA0009091BE019134B1F191DE81E033C081E0DB
:100AB00031C085E02FC084E02DC081E02BC088E0EC
:100AC00029C088E027C08AE025C089E023C086E0ED
:100AD00021C08DE01FC08FE01DC08CE01BC08EE0E8
:100AE00019C085E117C086E115C084E113C080E11B
:100AF00011C081E10FC08CE00DC08CE00BC08BE019
:100B000009C087E107C08CE005C08CE003C089E123
:100B100001C08CE08093C3010895CF93DF93CDB7DC
:100B2000DEB728970FB6F894DEBF0FBECDBF80EFBB
:100B300081B98FE082B91FEF14B915B817B918B889
:100B40001AB91BB828EE33E040E050E068EE73E0DD
:100B500080E090E079DB24E630E040E050E074DBB8
:100B600024E630E040E050E06FDB6B017C0168EE92
:100B700073E080E090E0A7019601B3D0922EA32EFF
:100B8000B42E052F64E670E080E090E0A7019601A6
:100B9000A8D088E0E4E0F1E0DE01119601900D922A
:100BA0008A95E1F710935201E7E5F1E02083318364
:100BB00042835383E3E5F1E020833183428353830F
:100BC0008FE992E090935C0180935B0110935D014B
:100BD000E2E6F1E02083318342835383EEE5F1E0E6
:100BE00020833183428353838AE194E090936701A9
:100BF0008093660110936801EDE6F1E09082A18296
:100C0000B2820383E9E6F1E09082A182B28203839B
:100C10008AEE90E0909372018093710110937301BA
:100C2000E8E7F1E09082A182B2820383E4E7F1E099
:100C30009082A182B282038380E593E090937D014C
:100C400080937C01C701B6012EDB3EDBB5DA7EDD89
:100C500090DD00E010E0C12CD12C38C0F801EE0F7F
:100C6000FF1F81E090E08C0F9D1FE80FF91FE080CF
:100C7000F180D70115964D915D916D917C911897FA
:100C800011968D919D910D90BC91A02D48175907FB
:100C90006A077B0769F4D7011996ED91FC911A97C1
:100CA0008C910995F7018083158216821782108630
:100CB000F70185819681A781B0850196A11DB11D9F
:100CC00085839683A783B0870F5F1F4F043011057C
:100CD00028F280914E018823E1F310924E018601A3
:100CE000F5CFA1E21A2EAA1BBB1BFD010DC0AA1F46
:100CF000BB1FEE1FFF1FA217B307E407F50720F085
:100D0000A21BB30BE40BF50B661F771F881F991FFF
:100D10001A9469F760957095809590959B01AC0148
:100D2000BD01CF010895EE0FFF1F0590F491E02D56
:100D30000994A29FB001B39FC001A39F01D0B29FAD
:100D4000700D811D1124911D0895F999FECF92BD5A
:100D500081BDF89A992780B50895262FF999FECF7D
:100D60001FBA92BD81BD20BD0FB6F894FA9AF99AC8
:0A0D70000FBE01960895F894FFCF1E
:100D7A000100000052015D0168017301202020205A
:100D8A0020436C6F636B200041646420416C617284
:100D9A006D00616C61726D6164647363726F6C6C17
:100DAA00002020202020416C61726D7300496E6919
:0A0DBA007469616C697A696E670064
:00000001FF
