S01400004D6F64756C655F416C61726D2E737265635E
S113000045C0000060C000005EC000005CC000008D
S11300105AC0000058C0000056C0000054C0000080
S113002052C0000050C000004EC000004CC0000090
S11300304AC00000DAC1000046C0000044C000000D
S113004042C0000040C000003EC000003CC00000B0
S11300503AC0000038C0000036C0000034C00000C0
S113006032C0000030C000002EC000002CC00000D0
S11300702AC0000028C0000026C0000024C00000E0
S113008022C0000020C000001EC0000011241FBEBA
S1130090CFEFD0E4DEBFCDBF11E0A0E0B1E0E0E5FA
S11300A0F9E000E00BBF02C007900D92A833B1073E
S11300B0D9F721E0A8E3B1E001C01D92A83AB20744
S11300C0E1F736D343C49CCF181619065CF00895A3
S11300D0000021503109E1F74F5F5F4F481759077E
S11300E029F4089540E050E067E073E09B01F0CF0D
S11300F05E9A88B95F9A00005F9881E090E0E4CF4F
S11301005E9888B95F9A00005F9882E090E0DCCF47
S1130110813110F48158F4CF8155F2CF81E0F0CFD2
S11301201F93CF93DF93182FEB01F8DF9881992366
S113013049F0812F1F5F90E0EBDF8991D9DF88813F
S11301408111F7CFDF91CF911F91089584E690E05C
S1130150BBDF88E3D5DF86E0D3DF8FE0D1DF81E04A
S1130160CFDF8AE090E0B0CF81112BC080918D0168
S11301708B3319F580918C018B33C9F480918B01F9
S11301808B3051F490918E01992311F090E001C0CD
S11301909FEF90938E0105C08C3019F410928B015F
S11301A003C08F5F80938B0110928C0103C08F5F1B
S11301B080938C0110928D010FC08F5F80938D010D
S11301C00BC08BE080938B018BE380938C0188E2DE
S11301D080938D0110928E0180E00895863009F499
S11301E059C084F48330A9F134F48130E9F08230C9
S11301F009F07FC03CC0843009F43FC0853009F069
S113020078C040C0893009F467C03CF4873009F4F1
S11302105EC0883009F06DC04BC08A3009F461C0FB
S113022085310CF066C076C090913D019F5F90933C
S11302303D01923328F490918A01933411F407C05C
S113024083E090918A01913409F455C063C083E03E
S113025061C090913D01923330F490918A019334BE
S113026019F082E001C082E010923D0153C09091E8
S11302708A01933209F04EC040C090918A019332B2
S1130280F1F548C090918A01913409F086E010920A
S11302903D0140C090913D019F5F90933D01923399
S11302A080F590918A01933471F1913499F52DC0C0
S11302B090913D01923328F490918A01933419F47A
S11302C003C087E001C087E010923D0123C09091F4
S11302D08A019332F9F41BC090918A019332C9F4D4
S11302E019C090918A01913409F081E010923D0186
S11302F011C081E00FC085E00DC084E00BC081E037
S113030009C088E007C088E005C08AE003C089E02E
S113031001C086E080938F0108950F931F93CF93BC
S1130320DF93B62FA72FF82FE92F022F132FD42FE7
S1130330C52F04C0052F142FD32FC22F6B2F7A2F54
S11303408F2F9E2F202F312F4D2F5C2FD5D2B02FE2
S1130350A12FFD2FEC2F562F472F382F292F672B36
S1130360682B692B39F7602F712F8D2F9C2FDF910C
S1130370CF911F910F910895609300017093010133
S113038080930201909303016093380170933901C3
S113039080933A0190933B0108958BE08093810010
S11303A08DE790E0909389008093880082E08093A9
S11303B06F0010928500109284008091000190914A
S11303C00101A0910201B09103018093380190933F
S11303D03901A0933A01B0933B018FB780688FBF76
S11303E0089581E080933C0108951F920F920FB607
S11303F00F9211240BB60F922F933F934F935F9359
S11304006F937F938F939F93AF93BF93EF93FF93D8
S11304108091380190913901A0913A01B0913B014A
S11304200197A109B1098093380190933901A093F0
S11304303A01B0933B01892B8A2B8B2B89F4D1DFB2
S11304408091000190910101A0910201B0910301FA
S11304508093380190933901A0933A01B0933B0102
S1130460FF91EF91BF91AF919F918F917F916F9188
S11304705F914F913F912F910F900BBE0F900FBE44
S11304800F901F9018958AE380936F0180936C01FD
S113049080918B018A3058F09DEC899F912D112415
S11304A0969596959695905D90936A0103C090E316
S11304B090936A019DEC899F912D112496959695B0
S11304C09695990F292F220F220F920F891B805D79
S11304D080936B0180918C018A3058F09DEC899F48
S11304E0912D1124969596959695905D90936D0116
S11304F003C090E390936D019DEC899F912D11248D
S1130500969596959695990F292F220F220F920F63
S1130510891B805D80936E0180918D018A3058F033
S11305209DEC899F912D1124969596959695905DB5
S11305309093700103C090E3909370019DEC899FA8
S1130540912D1124969596959695990F292F220F02
S1130550220F920F891B805D8093710180918E011F
S1130560882321F081E480937301089580E58093CA
S113057073010895882349F0EAE6F1E08AE891E0FE
S113058020E22193E817F907E1F780918F01843085
S1130590C9F040F4813081F058F1823099F0833011
S11305A019F50AC08730D9F018F48630E9F412C07E
S11305B08B508430C8F41CC081E085B96CE071E0D4
S11305C0AFDD16C088E085B95EDF6AE671E081E0E0
S11305D0A7DD0EC062E171E081E0A2DD09C06CE13B
S11305E071E081E09DDD04C06BE271E081E098DDA3
S11305F080E008958FEE82B90000009B29C0019B22
S113060029C0029B29C0039B29C08FED82B9000039
S1130610009B26C0019B26C0029B26C0039B26C0CC
S11306208FEB82B90000009B23C0019B23C0029B77
S113063023C0039B23C08FE782B90000009B20C026
S1130640019B20C0029B20C0039920C084E408952C
S113065081E3089584E3089587E308958AE2089581
S113066082E3089585E3089588E3089580E3089577
S113067083E3089586E3089589E3089583E2089562
S113068081E4089582E4089583E4089580E0089560
S1130690B1DF982F9154943020F0833211F08A32D4
S11306A019F480938A0102C010928A0180E00895AF
S11306B0E3E9F1E08BEA91E0DF0113971C92DF019B
S11306C012971C92DF0111971C9210823496E8173E
S11306D0F90791F708950F931F93CF93DF9384E164
S11306E090E02CD18431F9F4C3E0D0E0CE0103973B
S11306F025D18E0100571E4FF80133978083CE0118
S113070002971CD1F80132978083CE01019716D14C
S1130710F80131978083CE0111D1F80180832496AA
S1130720CB31D10519F7DF91CF911F910F91089526
S1130730CF93DF93CDB7DEB728970FB6F894DEBF1B
S11307400FBECDBF80EF81B98FE082B91FEF14B91E
S113075015B817B918B81AB91BB828EE33E040E039
S113076050E068EE73E080E090E0D7DD24E630E00E
S113077040E050E0D2DD24E630E040E050E0CDDD62
S11307806B017C0168EE73E080E090E0A7019601C4
S1130790B3D0922EA32EB42E052F64E670E080E031
S11307A090E0A7019601A8D088E0E4E0F1E0DE0142
S11307B0119601900D928A95E1F710933E01E3E4BE
S11307C0F1E02083318342835383EFE3F1E020831C
S11307D031834283538388E493E090934801809368
S11307E0470110934901EEE4F1E020833183428311
S11307F05383EAE4F1E020833183428353838EEE12
S113080090E0909353018093520110935401E9E5D1
S1130810F1E09082A182B2820383E5E5F1E0908267
S1130820A182B282038384EB90E090935E01809373
S11308305D0110935F01E4E6F1E09082A182B2824F
S11308400383E0E6F1E09082A182B28203838AEB23
S113085092E09093690180936801C701B6018CDD31
S11308609CDD74DC25DF37DF00E010E0C12CD12CE7
S113087038C0F801EE0FFF1F81E090E08C0F9D1F40
S1130880E80FF91FE080F180D70115964D915D9135
S11308906D917C91189711968D919D910D90BC91BD
S11308A0A02D481759076A077B0769F4D7011996E1
S11308B0ED91FC911A978C910995F701808315822B
S11308C0168217821086F70185819681A781B085EB
S11308D00196A11DB11D85839683A783B0870F5F01
S11308E01F4F0430110528F280913C018823E1F365
S11308F010923C018601F5CFA1E21A2EAA1BBB1B64
S1130900FD010DC0AA1FBB1FEE1FFF1FA217B307D7
S1130910E407F50720F0A21BB30BE40BF50B661FED
S1130920771F881F991F1A9469F7609570958095B1
S113093090959B01AC01BD01CF010895F999FECFBB
S113094092BD81BDF89A992780B50895F894FFCF98
S1130950010000003E01490154015F01436C6F63D3
S11309606B0041646420416C61726D00616C617262
S11309706D6164647363726F6C6C00496E69746951
S10B0980616C697A696E67007D
S9030000FC
