S01400004D6F64756C655F416C61726D2E737265635E
S113000078C0000094C0000092C0000090C00000BE
S11300108EC000008CC000008AC0000088C00000B0
S113002086C0000084C0000082C0000080C00000C0
S11300307EC0000077C100007AC0000078C00000D4
S113004076C0000074C0000072C0000070C00000E0
S11300506EC000006CC000006AC0000068C00000F0
S113006066C0000064C0000062C0000060C0000000
S11300705EC000005CC000005AC0000058C0000010
S113008056C0000054C0000052C00000BA03DD0393
S1130090CF03E303E903F1031104020417041D046D
S11300A0250436043004A004D7044D0478047204F3
S11300B09A04A604B604C904B004C404D2041F06F6
S11300C0FB050006FB0500061F0606060B060606D2
S11300D00B061F0610061506100615061F06150644
S11300E01506150615061F061F061F061F061F0602
S11300F01F0611241FBECFEFD0E4DEBFCDBF11E039
S1130100A0E0B1E0EEE5F2E100E00BBF02C0079031
S11301100D92AC34B107D9F721E0ACE4B1E001C0F1
S11301201D92AE3EB207E1F7BED50C942D0968CFFF
S1130130181619065CF00895000021503109E1F702
S11301404F5F5F4F4817590729F4089540E050E086
S113015067E073E09B01F0CF5E9A88B95F9A000074
S11301605F9881E090E0E4CF5E9888B95F9A0000E0
S11301705F9882E090E0DCCF813110F48158F4CFB5
S11301808155F2CF81E0F0CF1F93CF93DF93182FE7
S1130190EB01F8DF9881992351F0812F182F1F5F0D
S11301A0EBDF8991D9DF812F98819111F7CF80E21C
S11301B0E3DFDF91CF911F91089584E690E0B8DFEB
S11301C088E3D2DF86E0D0DF8FE0CEDF81E0CCDFD2
S11301D08AE090E0ADCF882371F08BE08093D40166
S11301E08AE38093D50182E38093D6018FEF8093D5
S11301F0D701109291018091D6018B3331F5809112
S1130200D5018B33C9F48091D4018B3051F4909192
S1130210D701992311F090E001C09FEF9093D7018B
S113022005C08C3019F41092D40103C08F5F809301
S1130230D4011092D50103C08F5F8093D5018FEF55
S1130240809391011092D60103C08F5F8093D601F1
S113025080E008950F931F93CF93DF93B62FA72FBA
S1130260F82FE92F022F132FD42FC52F04C0052FE9
S1130270142FD32FC22F6B2F7A2F8F2F9E2F202F27
S1130280312F4D2F5C2F97D7B02FA12FFD2FEC2F9F
S1130290562F472F382F292F672B682B692B39F7B7
S11302A0602F712F8D2F9C2FDF91CF911F910F9174
S11302B0089560930001709301018093020190936B
S11302C0030160934C0170934D0180934E01909310
S11302D04F0108958BE0809381008DE790E0909327
S11302E089008093880082E080936F0010928500DB
S11302F0109284008091000190910101A09102016B
S1130300B091030180934C0190934D01A0934E0151
S1130310B0934F018FB780688FBF089581E08093B9
S1130320500108951F920F920FB60F9211240BB62D
S11303300F922F933F934F935F936F937F938F937A
S11303409F93AF93BF93EF93FF9380914C01909150
S11303504D01A0914E01B0914F010197A109B1093E
S113036080934C0190934D01A0934E01B0934F01A3
S1130370892B8A2B8B2B89F4D1DF809100019091FA
S11303800101A0910201B091030180934C0190936B
S11303904D01A0934E01B0934F01FF91EF91BF9196
S11303A0AF919F918F917F916F915F914F913F9109
S11303B02F910F900BBE0F900FBE0F901F901895AA
S11303C08FEE82B90000009B29C0019B29C0029BCB
S11303D029C0039B29C08FED82B90000009B26C071
S11303E0019B26C0029B26C0039B26C08FEB82B9CB
S11303F00000009B23C0019B23C0029B23C0039BDE
S113040023C08FE782B90000009B20C0019B20C05D
S1130410029B20C0039920C084E4089581E30895D9
S113042084E3089587E308958AE2089582E30895B2
S113043085E3089588E3089580E3089583E30895A8
S113044086E3089589E3089583E2089581E4089595
S113045082E4089583E4089580E00895B1DF982F3D
S11304609154943030F0833221F08A3211F0803389
S113047019F48093D20102C01092D2019091D30159
S11304809F3F21F4843411F41092D30180E0089545
S1130490CF92DF92EF92FF926B017C012091510188
S11304A0309152014091530150915401F8D4882362
S11304B009F452C020E030E0A901C701B601EFD42D
S11304C0811106C0E1E9F0E080818870808305C075
S11304D0E1E9F0E080818360808328E539E344E743
S11304E05FE3C701B601DBD488233CF48FEF9FEFB1
S11304F0909399008093980023C020E034E244EF65
S113050056E4C701B601DDD518162CF410929900F3
S11305101092980015C020E030E040E053E4C70199
S1130520B601D3D59B01AC0160E074E284EF9AE498
S1130530BAD421D5615071097093990060939800E1
S11305401092950010929400C0925101D0925201E1
S1130550E0925301F0925401FF90EF90DF90CF901E
S1130560089580E4809390008BE08093910060E094
S113057070E0CB018DCF10929000109291000895FD
S11305808AE38093B7018093B4018091D4018A30C7
S113059058F09DEC899F912D1124969596959695EA
S11305A0905D9093B20103C090E39093B2019DECEF
S11305B0899F912D1124969596959695990F292F9B
S11305C0220F220F920F891B805D8093B3018091CB
S11305D0D5018A3058F09DEC899F912D1124969570
S11305E096959695905D9093B50103C090E3909392
S11305F0B5019DEC899F912D11249695969596951C
S1130600990F292F220F220F920F891B805D80934F
S1130610B6018091D6018A3058F09DEC899F912DC6
S11306201124969596959695905D9093B80103C084
S113063090E39093B8019DEC899F912D1124969598
S113064096959695990F292F220F220F920F891BA9
S1130650805D8093B9018091D701882321F081E4E2
S11306608093BB01089580E58093BB010895ECED70
S1130670F1E080EF91E0DF0113971C92DF01129704
S11306801C92DF0111971C9210823496E817F90727
S113069091F708950F931F93CF93DF9384E190E034
S11306A0C6D58431F9F4C3E0D0E0CE010397BFD5B9
S11306B08E0107521E4FF80133978083CE010297B3
S11306C0B6D5F80132978083CE010197B0D5F801F1
S11306D031978083CE01ABD5F80180832496C7314E
S11306E0D10519F7DF91CF911F910F9108950F93C1
S11306F01F93CF93DF9384E190E099D5843119F16E
S113070064E184E190E09BD51EC08E0107521E4F28
S1130710F80133976081CE01039791D5F8013297A0
S11307206081CE0102978BD5F80131976081CE01AB
S1130730019785D5F8016081CE0181D52496C73112
S1130740D10519F703C0C3E0D0E0DFCFDF91CF912B
S11307501F910F910895482F552747FD5095652FF8
S1130760752FFA013197E931F10508F025C1EA5BEB
S1130770FF4F43C5909158019F5F90935801923366
S113078028F49091D201933411F407C083E090913E
S1130790D201913409F412C140C183E03EC1909169
S11307A05801923330F49091D201933419F082E0DD
S11307B001C082E01092580130C19091D20193326D
S11307C009F02BC1FDC09091D201933209F0FAC017
S11307D024C19091D201913409F086E0109258011D
S11307E01CC1909158019F5F90935801923308F077
S11307F0EBC09091D201933409F4E8C0913409F02C
S11308000CC1E6C090915801923328F49091D20122
S1130810933419F403C087E001C087E010925801B3
S1130820FCC09091D201933209F0F7C0D3C09091EB
S1130830D201933209F0D0C0F0C09091D20191342A
S113084009F08BE010925801E8C09091D2019334E2
S113085019F420DF8DE0E1C0913409F0DEC0BEC0A0
S11308609091D201933409F0BBC0D7C09091D201CA
S1130870933219F43CDF8EE0D0C0933409F4B2C053
S1130880923409F4B1C0913409F4B0C09A3209F435
S1130890AFC0903309F0C1C0ADC08091ED0190E0CC
S11308A0FC01EE0FFF1FEE0FFF1FE752FE4F2081EA
S11308B02C3058F4FC01EE0FFF1FEE0FFF1FE75220
S11308C0FE4F2F5F208382E1A8C0FC01EE0FFF1FC3
S11308D0EE0FFF1FE752FE4F1082828180958283C4
S11308E082E19BC09091D2019A3209F085C095C0F3
S11308F08091ED0190E0FC01EE0FFF1FEE0FFF1F52
S1130900E752FE4F21812B3358F4FC01EE0FFF1FF9
S1130910EE0FFF1FE752FE4F2F5F218383E17DC05F
S1130920FC01EE0FFF1FEE0FFF1FE752FE4F118277
S113093083E173C09091D201903309F05FC06DC020
S11309409091D201933209F05BC067C08091ED01B0
S1130950843008F057C08F5F8093ED0187E15DC05C
S11309609091D201913409F04FC057C0E091ED014C
S1130970F0E0EE0FFF1FEE0FFF1FE752FE4F8381E3
S11309808095838388E149C09091D2019334F1F535
S113099044C08091ED018823D9F181508093ED0109
S11309A089E13BC09091D2019234A1F536C0909177
S11309B0D201913489F531C081E02FC085E02DC08A
S11309C084E02BC081E029C088E027C088E025C0EE
S11309D08AE023C089E021C086E01FC08FE01DC0EB
S11309E08CE01BC085E119C086E117C084E115C005
S11309F080E113C081E111C08CE00FC08CE00DC018
S1130A008BE00BC087E109C08CE007C08CE005C017
S1130A1089E103C08CE001C081E08093D80108958E
S1130A201092D301E0919001F0E0EE0FFF1FEE0F62
S1130A30FF1FE752FE4F13825ACECF938091D3010A
S1130A4081112AC04091D4016091D5017091D701E0
S1130A5050919001ECEDF1E020E0CFEF30813F3F89
S1130A6091F4DF0113973C9134130DC0DF01129709
S1130A703C91361308C0DF0111978C91871303C092
S1130A80C093D301522F2F5F3496253039F75093FA
S1130A90900185E080935501CF9108958091ED01F7
S1130AA090E0FC01EE0FFF1FEE0FFF1FE752FE4F19
S1130AB0F0935701E09356012EE32093920121E431
S1130AC0209393013CE4309394012093950122E513
S1130AD0209396012DE42093970101966AE070E03B
S1130AE057D3605D60939901805D80939A018381FF
S1130AF0811109C08FE480939E0186E480939F0155
S1130B008093A00109C080E280939E018FE48093CA
S1130B109F018EE48093A001E0915601F09157016A
S1130B2090818DEC989F912D11249695969596958C
S1130B30905D9093A3019081989F212D1124269577
S1130B4026952695220F322F330F330F230F921B36
S1130B50905D9093A4019AE39093A5019181989F4D
S1130B60912D1124969596959695905D9093A60156
S1130B709181989F812D1124869586958695880F5D
S1130B80282F220F220F820F981B905D9093A701AC
S1130B908281811104C080E58093A90103C081E4AE
S1130BA08093A9018DE48093AA010895CF93C82F5F
S1130BB08F3FB1F4E2EBF1E082ED91E020E221938A
S1130BC0E817F907E1F71092ED01E2E9F1E082EBB1
S1130BD091E020E22193E817F907E1F7C0E002C0B1
S1130BE081112DC0E091D801F0E0EA31F10518F54A
S1130BF0E15AFF4F02C36EE071E081E0C5DA1FC025
S1130C00BFDC62EB71E081E0BFDA19C06AE171E038
S1130C1081E0BADA14C064E271E081E0B5DA0FC0B1
S1130C2063E371E081E0B0DA0AC038DF62E971E0C1
S1130C3081E0AADA04C06FE371E081E0A5DA8C2FC9
S1130C40CF9108958EDC64EA70ED82E893E420CCC1
S1130C5092CC0895CF93C82F882319F08130E9F4FA
S1130C600EC0809191018F3FD9F4E7DE8091D301CA
S1130C708F3F11F4E7DFC1E01092910111C0809120
S1130C8091018F3F11F4109291018091D301811150
S1130C9007C0C6DEDDDFC0E003C01092D301C0E0B0
S1130CA08C2FCF910895CF93DF93CDB7DEB72A97DA
S1130CB00FB6F894DEBF0FBECDBF80EF81B98FE0D1
S1130CC082B91FEF14B915B817B918B81AB91BB8F7
S1130CD028EE33E040E050E068EE73E080E090E01E
S1130CE0B9DA24E630E040E050E0B4DA24E630E05B
S1130CF040E050E0AFDA24E630E040E050E0AADA29
S1130D006B017C0168EE73E080E090E0A70196013E
S1130D1052D2922EA32EB42E052F64E670E080E00A
S1130D2090E0A701960147D28AE0E4E0F1E0DE0119
S1130D30119601900D928A95E1F710935901EEE511
S1130D40F1E02083318342835383EAE5F1E0208399
S1130D503183428353838EE292E0909363018093C4
S1130D60620110936401E9E6F1E020833183428358
S1130D705383E5E6F1E020833183428353838BEA96
S1130D8093E090936E0180936D0110936F01E4E7FB
S1130D90F1E09082A182B2820383E0E7F1E09082E5
S1130DA0A182B28203838BEE90E0909379018093C9
S1130DB0780110937A01EFE7F1E09082A182B28288
S1130DC00383EBE7F1E09082A182B282038386ED94
S1130DD095E0909384018093830110938501EAE860
S1130DE0F1E02083318342835383E6E8F1E02083FA
S1130DF03183428353838AE296E090938F018093F8
S1130E008E01C701B60155DA65DAD7D930DC00E0C6
S1130E1010E0C12CD12C38C0F801EE0FFF1F81E087
S1130E2090E08C0F9D1FE80FF91FE080F180D7013F
S1130E3015964D915D916D917C91189711968D91B8
S1130E409D910D90BC91A02D481759076A077B0707
S1130E5069F4D7011996ED91FC911A978C91099533
S1130E60F70180831582168217821086F701858127
S1130E709681A781B0850196A11DB11D85839683B6
S1130E80A783B0870F5F1F4F0530110528F28091AB
S1130E9050018823E1F3109250018601F5CF9CD0D4
S1130EA008F481E008950CD0D2C0CAD040F0C1D07B
S1130EB030F021F45F3F19F0B3C05111FCC0B6C04B
S1130EC0D7D098F39923C9F35523B1F3951B550B48
S1130ED0BB27AA2762177307840738F09F5F5F4F09
S1130EE0220F331F441FAA1FA9F333D00E2E3AF04A
S1130EF0E0E830D091505040E695001CCAF729D064
S1130F00FE2F27D0660F771F881FBB1F26173707B2
S1130F104807AB07B0E809F0BB0B802DBF01FF27E2
S1130F2093585F4F2AF09E3F510568F079C0C3C0C3
S1130F305F3FECF3983EDCF3869577956795B7951C
S1130F40F7959F5FC9F7880F911D9695879597F937
S1130F500895E1E0660F771F881FBB1F62177307B0
S1130F608407BA0720F0621B730B840BBA0BEE1FC5
S1130F7088F7E095089504D06894B1119CC0089551
S1130F807FD088F09F5790F0B92F9927B751A0F0E0
S1130F90D1F0660F771F881F991F1AF0BA95C9F709
S1130FA012C0B13081F086D0B1E0089583C0672FBC
S1130FB0782F8827B85F39F0B93FCCF386957795B9
S1130FC06795B395D9F73EF49095809570956195A2
S1130FD07F4F8F4F9F4F0895990F0008550FAA0B0D
S1130FE0E0E8FEEF16161706E807F907C0F0121638
S1130FF01306E407F50798F0621B730B840B950B3B
S113100039F40A2661F0232B242B252B21F408958F
S11310100A2609F4A140A6958FEF811D811D08952C
S113102097F99F6780E870E060E008959FEF80EC97
S1131030089500240A94161617061806090608953A
S113104000240A9412161306140605060895092EA0
S11310500394000C11F4882352F0BB0F40F4BF2B0F
S113106011F460FF04C06F5F7F4F8F4F9F4F08954F
S113107057FD9058440F551F59F05F3F71F0479545
S1131080880F97FB991F61F09F3F79F0879508952A
S1131090121613061406551FF2CF4695F1DF08C049
S11310A0161617061806991FF1CF86957105610566
S11310B008940895E894BB2766277727CB0197F90E
S11310C008958ADF08F48FEF08950BD0C0CFB1DF05
S11310D028F0B6DF18F0952309F0A2CFA7CF11248A
S11310E0EACFC6DFA0F3959FD1F3950F50E0551FCB
S11310F0629FF001729FBB27F00DB11D639FAA2769
S1131100F00DB11DAA1F649F6627B00DA11D661FB7
S1131110829F2227B00DA11D621F739FB00DA11DD8
S1131120621F839FA00D611D221F749F3327A00D92
S1131130611D231F849F600D211D822F762F6A2F2E
S113114011249F5750408AF0E1F088234AF0EE0FB3
S1131150FF1FBB1F661F771F881F91505040A9F7C0
S11311609E3F510570F05CCFA6CF5F3FECF3983EF5
S1131170DCF3869577956795B795F795E7959F5F27
S1131180C1F7FE2B880F911D9695879597F90895C1
S113119097FB072E16F4009406D077FD08D033D0C1
S11311A007FC05D03EF4909581959F4F0895709566
S11311B061957F4F0895A1E21A2EAA1BBB1BFD0166
S11311C00DC0AA1FBB1FEE1FFF1FA217B307E40722
S11311D0F50720F0A21BB30BE40BF50B661F771F7A
S11311E0881F991F1A9469F760957095809590955A
S11311F09B01AC01BD01CF010895EE0FFF1F0590C7
S1131200F491E02D0994AA1BBB1B51E107C0AA1F4E
S1131210BB1FA617B70710F0A61BB70B881F991F93
S11312205A95A9F780959095BC01CD010895F99937
S1131230FECF92BD81BDF89A992780B50895262FD7
S1131240F999FECF1FBA92BD81BD20BD0FB6F894A7
S1111250FA9AF99A0FBE01960895F894FFCF0A
S113125E01000000590164016F0185017A0120200B
S113126E202020436C6F636B200041646420416C2A
S113127E61726D00616C61726D6164647363726F2F
S113128E6C6C002020202020416C61726D7300492B
S10F129E6E697469616C697A696E67009E
S9030000FC
