S01400004D6F64756C655F416C61726D2E737265635E
S113000045C0000060C000005EC000005CC000008D
S11300105AC0000058C0000056C0000054C0000080
S113002052C0000050C000004EC000004CC0000090
S11300304AC0000004C2000046C0000044C00000E2
S113004042C0000040C000003EC000003CC00000B0
S11300503AC0000038C0000036C0000034C00000C0
S113006032C0000030C000002EC000002CC00000D0
S11300702AC0000028C0000026C0000024C00000E0
S113008022C0000020C000001EC0000011241FBEBA
S1130090CFEFD0E4DEBFCDBF11E0A0E0B1E0EAECE9
S11300A0F9E000E00BBF02C007900D92A235B10742
S11300B0D9F721E0A2E5B1E001C01D92A23CB2074C
S11300C0E1F773D380C49CCF181619065CF0089529
S11300D0000021503109E1F74F5F5F4F481759077E
S11300E029F4089540E050E067E073E09B01F0CF0D
S11300F05E9A88B95F9A00005F9881E090E0E4CF4F
S11301005E9888B95F9A00005F9882E090E0DCCF47
S1130110813110F48158F4CF8155F2CF81E0F0CFD2
S11301201F93CF93DF93182FEB01F8DF9881992366
S113013049F0812F1F5F90E0EBDF8991D9DF88813F
S11301408111F7CFDF91CF911F91089584E690E05C
S1130150BBDF88E3D5DF86E0D3DF8FE0D1DF81E04A
S1130160CFDF8AE090E0B0CF81112BC08091A7014E
S11301708B3319F58091A6018B33C9F48091A501C5
S11301808B3051F49091A801992311F090E001C0B3
S11301909FEF9093A80105C08C3019F41092A5012B
S11301A003C08F5F8093A5011092A60103C08F5FE7
S11301B08093A6011092A7010FC08F5F8093A701BF
S11301C00BC08BE08093A5018BE38093A60188E2AA
S11301D08093A7011092A80180E00895883009F463
S11301E070C094F4843009F44DC044F4823009F4AE
S11301F043C0A4F5813009F09CC01BC0863009F4CB
S11302004FC00CF06DC044C08C3009F488C034F485
S11302108A3009F470C00CF076C068C08E3009F4DE
S113022083C00CF477C0982F9051963008F081C0A9
S11302309BC0909157019F5F90935701923328F48C
S11302409091A401933411F407C083E09091A40128
S1130250913409F470C088C083E086C0909157013E
S1130260923330F49091A401933419F082E001C0E8
S113027082E01092570178C09091A401933209F062
S113028073C05BC09091A401933209F058C06CC054
S11302909091A401913409F086E01092570164C052
S11302A0909157019F5F90935701923308F049C092
S11302B09091A401933409F446C0913409F054C0D8
S11302C044C090915701923328F49091A40193343F
S11302D019F403C087E001C087E01092570144C0BD
S11302E09091A401933209F03FC031C09091A401D0
S11302F0933279F539C09091A401913409F08BE0DF
S11303001092570131C09091A401933421F191349A
S113031059F523C09091A401933409F525C0909117
S1130320A401933209F51DC09091A4019332D9F42C
S11303301BC081E019C085E017C084E015C081E0CE
S113034013C088E011C088E00FC08AE00DC089E0C6
S11303500BC086E009C08DE007C08FE005C08CE0CB
S113036003C08EE001C08BE08093A90108950F9330
S11303701F93CF93DF93B62FA72FF82FE92F022FC8
S1130380132FD42FC52F04C0052F142FD32FC22F02
S11303906B2F7A2F8F2F9E2F202F312F4D2F5C2FD5
S11303A0E8D2B02FA12FFD2FEC2F562F472F382F37
S11303B0292F672B682B692B39F7602F712F8D2F0D
S11303C09C2FDF91CF911F910F91089560930001AD
S11303D07093010180930201909303016093520191
S11303E070935301809354019093550108958BE0C9
S11303F0809381008DE790E090938900809388003A
S113040082E080936F0010928500109284008091A6
S1130410000190910101A0910201B0910301809328
S1130420520190935301A0935401B09355018FB797
S113043080688FBF089581E08093560108951F92CC
S11304400F920FB60F9211240BB60F922F933F9376
S11304504F935F936F937F938F939F93AF93BF93C8
S1130460EF93FF938091520190915301A091540115
S1130470B09155010197A109B1098093520190935C
S11304805301A0935401B0935501892B8A2B8B2BD4
S113049089F4D1DF8091000190910101A0910201C2
S11304A0B09103018093520190935301A09354019E
S11304B0B0935501FF91EF91BF91AF919F918F91AF
S11304C07F916F915F914F913F912F910F900BBE50
S11304D00F900FBE0F901F9018958AE380938901A7
S11304E0809386018091A5018A3058F09DEC899F04
S11304F0912D1124969596959695905D90938401EF
S113050003C090E3909384019DEC899F912D112465
S1130510969596959695990F292F220F220F920F53
S1130520891B805D809385018091A6018A3058F0F3
S11305309DEC899F912D1124969596959695905DA5
S11305409093870103C090E3909387019DEC899F6A
S1130550912D1124969596959695990F292F220FF2
S1130560220F920F891B805D809388018091A701DF
S11305708A3058F09DEC899F912D1124969596957B
S11305809695905D90938A0103C090E390938A01BD
S11305909DEC899F912D1124969596959695990F8A
S11305A0292F220F220F920F891B805D80938B01CC
S11305B08091A801882321F081E480938D0108951E
S11305C080E580938D010895882349F0E4E8F1E003
S11305D084EA91E020E22193E817F907E1F780919A
S11305E0A901863051F170F48230F9F030F4882397
S11305F009F43BC08130A9F512C0833081F0843006
S113060081F513C08C3041F128F48730D9F08B3058
S113061041F51DC08D30D9F08E3019F51DC081E033
S113062085B96CE071E07CDD20C088E085B955DFD8
S113063064E871E081E074DD18C062E171E081E09A
S11306406FDD13C06CE171E081E06ADD0EC06BE226
S113065071E081E065DD09C06AE371E081E060DD9D
S113066004C064E471E081E05BDD80E008958FEE16
S113067082B90000009B29C0019B29C0029B29C0AC
S1130680039B29C08FED82B90000009B26C0019B0B
S113069026C0029B26C0039B26C08FEB82B90000B4
S11306A0009B23C0019B23C0029B23C0039B23C048
S11306B08FE782B90000009B20C0019B20C0029BF1
S11306C020C0039920C084E4089581E3089584E35D
S11306D0089587E308958AE2089582E3089585E3FF
S11306E0089588E3089580E3089583E3089586E3F5
S11306F0089589E3089583E2089581E4089582E4E6
S1130700089583E4089580E00895B1DF982F91540B
S1130710943020F0833211F08A3219F48093A401CA
S113072002C01092A40180E00895EDEAF1E085ECA6
S113073091E0DF0113971C92DF0112971C92DF01F5
S113074011971C9210823496E817F90791F70895CF
S11307500F931F93CF93DF9384E190E02CD18431E6
S1130760F9F4C3E0D0E0CE01039725D18E010655FC
S11307701E4FF80133978083CE0102971CD1F801F4
S113078032978083CE01019716D1F8013197808387
S1130790CE0111D1F80180832496CB31D10519F70C
S11307A0DF91CF911F910F910895CF93DF93CDB730
S11307B0DEB728970FB6F894DEBF0FBECDBF80EF2B
S11307C081B98FE082B91FEF14B915B817B918B8F9
S11307D01AB91BB828EE33E040E050E068EE73E04D
S11307E080E090E0C4DD24E630E040E050E0BFDD8E
S11307F024E630E040E050E0BADD6B017C0168EEB5
S113080073E080E090E0A7019601B3D0922EA32E6E
S1130810B42E052F64E670E080E090E0A701960115
S1130820A8D088E0E4E0F1E0DE01119601900D9299
S11308308A95E1F710935801EDE5F1E020833183C7
S113084042835383E9E5F1E0208331834283538378
S113085085E893E0909362018093610110936301B2
S1130860E8E6F1E02083318342835383E4E6F1E058
S113087020833183428353838EEE90E090936D0105
S113088080936C0110936E01E3E7F1E09082A18202
S1130890B2820383EFE6F1E09082A182B282038305
S11308A084EB90E090937801809377011093790121
S11308B0EEE7F1E09082A182B2820383EAE7F1E0FD
S11308C09082A182B282038384EE92E090938301AA
S11308D080938201C701B60179DD89DD37DC25DF2C
S11308E037DF00E010E0C12CD12C38C0F801EE0F46
S11308F0FF1F81E090E08C0F9D1FE80FF91FE0803F
S1130900F180D70115964D915D916D917C91189769
S113091011968D919D910D90BC91A02D481759076A
S11309206A077B0769F4D7011996ED91FC911A9730
S11309308C910995F701808315821682178210869F
S1130940F70185819681A781B0850196A11DB11D0E
S113095085839683A783B0870F5F1F4F04301105EB
S113096028F2809156018823E1F310925601860102
S1130970F5CFA1E21A2EAA1BBB1BFD010DC0AA1FB5
S1130980BB1FEE1FFF1FA217B307E407F50720F0F4
S1130990A21BB30BE40BF50B661F771F881F991F6F
S11309A01A9469F760957095809590959B01AC01B8
S11309B0BD01CF010895F999FECF92BD81BDF89A8A
S10D09C0992780B50895F894FFCF3D
S11309CA01000000580163016E017901436C6F63F1
S11309DA6B0041646420416C61726D00616C6172E8
S11309EA6D6164647363726F6C6C00616C61726DC7
S11309FA766965777469746C6500616C61726D7689
S1130A0A69657700496E697469616C697A696E67A8
S1050A1A0000D6
S9030000FC
