S02900004D6F64756C655F5461736B5363686564756C65725F54696D654372756E6368534D2E7372656313
S113000045C0000060C000005EC000005CC000008D
S11300105AC0000058C0000056C0000054C0000080
S113002052C0000050C000004EC000004CC0000090
S11300304AC000003AC1000046C0000044C00000AD
S113004042C0000040C000003EC000003CC00000B0
S11300503AC0000038C0000036C0000034C00000C0
S113006032C0000030C000002EC000002CC00000D0
S11300702AC0000028C0000026C0000024C00000E0
S113008022C0000020C000001EC0000011241FBEBA
S1130090CFEFD0E4DEBFCDBF11E0A0E0B1E0EEEDE4
S11300A0F5E000E00BBF02C007900D92A430B10749
S11300B0D9F721E0A4E0B1E001C01D92A334B20756
S11300C0E1F7CED18AC29CCF181619065CF00895C8
S11300D0000021503109E1F74F5F5F4F481759077E
S11300E029F4089540E050E067E073E09B01F0CF0D
S11300F05E9A88B95F9A00005F9881E090E0E4CF4F
S11301005E9888B95F9A00005F9882E090E0DCCF47
S1130110813110F48158F4CF8155F2CF81E0F0CFD2
S11301201F93CF93DF93182FEB01F8DF9881992366
S113013051F0812F182F1F5FEBDF8991D9DF812FB9
S113014098819111F7CFDF91CF911F91089584E6A3
S113015090E0BADF88E3D4DF86E0D2DF8FE0D0DF3F
S113016081E0CEDF8AE090E0AFCF811128C080919A
S113017041018B3301F5809140018B33B1F48091BF
S11301803F018C3061F480914201882311F080E0BA
S113019001C08FEF8093420110923F0103C08F5F33
S11301A080933F011092400103C08F5F8093400110
S11301B01092410110C08F5F809341010CC08BE00D
S11301C080933F018BE38093400188E28093410157
S11301D08FEF8093420180E008950F931F93CF9394
S11301E0DF93B62FA72FF82FE92F022F132FD42F29
S11301F0C52F04C0052F142FD32FC22F6B2F7A2F96
S11302008F2F9E2F202F312F4D2F5C2FC4D1B02F35
S1130210A12FFD2FEC2F562F472F382F292F672B77
S1130220682B692B39F7602F712F8D2F9C2FDF914D
S1130230CF911F910F910895609300017093010174
S1130240809302019093030160930401709305016C
S1130250809306019093070108958BE080938100B9
S11302608DE790E0909389008093880082E08093EA
S11302706F0010928500109284008091000190918B
S11302800101A0910201B0910301809304019093B4
S11302900501A0930601B09307018FB780688FBF53
S11302A0089581E08093080108951F920F920FB67C
S11302B00F9211240BB60F922F933F934F935F939A
S11302C06F937F938F939F93AF93BF93EF93FF931A
S11302D08091040190910501A0910601B09107015C
S11302E00197A109B1098093040190930501A0939A
S11302F00601B0930701892B8A2B8B2B89F4D1DF5C
S11303008091000190910101A0910201B09103013B
S11303108093040190930501A0930601B093070113
S1130320FF91EF91BF91AF919F918F917F916F91C9
S11303305F914F913F912F910F900BBE0F900FBE85
S11303400F901F9018958AE38093240180932101D4
S113035080913F018A3058F09DEC899F912D1124A2
S1130360969596959695905D90931F0103C090E3A2
S113037090931F019DEC899F912D1124969596953C
S11303809695990F292F220F220F920F891B805DBA
S113039080932001809140018A3058F09DEC899F20
S11303A0912D1124969596959695905D90932201A2
S11303B003C090E3909322019DEC899F912D112419
S11303C0969596959695990F292F220F220F920FA5
S11303D0891B805D80932301809141018A3058F00C
S11303E09DEC899F912D1124969596959695905DF7
S11303F09093250103C090E3909325019DEC899F80
S1130400912D1124969596959695990F292F220F43
S1130410220F920F891B805D8093260180914201F7
S1130420882331F081E48093280188E185B9089517
S113043080E58093280185E585B90895882349F0EE
S1130440EFE1F1E08FE391E020E22193E817F9076F
S1130450E1F779DF6FE171E081E062DE80E0089529
S1130460CF93DF9300D000D0CDB7DEB71FEF14B920
S113047081E085B917B918B81AB91BB828EE33E06A
S113048040E050E068EE73E080E090E0A6DE6B01AF
S11304907C0168EE73E080E090E0A70196017BD0D8
S11304A0E9E0F1E0FA83E983A4E1B1E0BC83AB8342
S11304B01083EEE0F1E02083318342835383EAE04A
S11304C0F1E0208331834283538385EB90E0909362
S11304D01301809312011C93E9E1F1E0208331833D
S11304E042835383E5E1F1E02083318342835383E4
S11304F08EE192E090931E0180931D01C701B60125
S11305009BDEABDE24DE00E010E0C12CD12C38C031
S1130510F801EE0FFF1F81E090E08C0F9D1FE80FA4
S1130520F91FE080F180D70115964D915D916D9191
S11305307C91189711968D919D910D90BC91A02D51
S1130540481759076A077B0769F4D7011996ED9193
S1130550FC911A978C910995F70180831582168274
S113056017821086F70185819681A781B08501964F
S1130570A11DB11D85839683A783B0870F5F1F4F8D
S11305800230110528F2809108018823E1F31092CA
S113059008018601F5CFA1E21A2EAA1BBB1BFD019F
S11305A00DC0AA1FBB1FEE1FFF1FA217B307E4074E
S11305B0F50720F0A21BB30BE40BF50B661F771FA6
S11305C0881F991F1A9469F7609570958095909586
S11105D09B01AC01BD01CF010895F894FFCF4B
S10705DE0100000014
S9030000FC
