S01B00006D74696E673030355F6C6162375F65783030312E73726563C3
S11300008AC0000090C000008EC000008CC00000B8
S11300108AC0000088C0000086C0000084C00000C0
S113002082C0000080C000007EC000007CC00000D0
S11300307AC0000078C0000076C0000074C00000E0
S113004072C0000070C000006EC000006CC00000F0
S11300506AC0000068C0000066C0000064C0000000
S113006062C0000060C000005EC000005CC0000010
S11300705AC0000058C0000056C0000054C0000020
S113008052C0000050C000004EC0000019013E01E3
S11300903E013E013E013E013E013E013E013E0164
S11300A03E013E013E013E013E013E013E013E0154
S11300B03E013E013E013E013E013E013E013E0144
S11300C03E013E013E013E013E013E013E013E0134
S11300D03E013C013E013E013E013E013E013E0126
S11300E03A013E013E013E013E013E0130011C0148
S11300F01F0122012401260128012A012C012E01BD
S11301003E013E013E013E013E013E013E013201FF
S113011034013601380111241FBECFEFD0E4DEBF15
S1130120CDBF50D0B4C06CCF8FEE88B90000309BE7
S113013029C0319B29C0329B29C0339B29C08FED34
S113014088B90000309B26C0319B26C0329B26C054
S1130150339B26C08FEB88B90000309B23C0319BB2
S113016023C0329B23C0339B23C08FE788B9000090
S1130170309B20C0319B20C0329B20C0339920C0CB
S113018084E4089581E3089584E3089587E308955A
S11301908AE2089582E3089585E3089588E3089543
S11301A080E3089583E3089586E3089589E3089539
S11301B083E2089581E4089582E4089583E4089530
S11301C080E008958FEF84B915B880EF87B98FE088
S11301D088B90F2EFFE07F2EF02D0F2EFEE08F2E1C
S11301E0F02D0F2EFDE09F2EF02D0F2EFCE0AF2EF4
S11301F0F02D0F2EFBE0BF2EF02D0F2EFAE0CF2EA8
S1130200F02D0F2EF9E0DF2EF02D6894EE24E3F8A4
S11302100F2EF7E0FF2EF02D06E015E0D4E0C3E04A
S113022083DFE82FF0E0E534F10540F5EA5BFF4FAA
S113023028C08FE185B9F4CF81E085B9F1CF82E0A0
S113024085B9EECFC5B9ECCFD5B9EACF15B9E8CFAA
S113025005B9E6CFF5B8E4CFE5B8E2CFD5B8E0CF3D
S113026015B8DECFC5B8DCCFB5B8DACFA5B8D8CFCE
S113027095B8D6CF85B8D4CF75B8D2CF8FEF85B91E
S1130280CFCFEE0FFF1F0590F491E02D0994F89461
S1050290FFCF9A
S9030000FC
